:100000000C9446000C9465000C9465000C946500FB
:100010000C9465000C9465000C9465000C946500CC
:100020000C9465000C9465000C9465000C946500BC
:100030000C9465000C94DE000C9465000C94650033
:100040000C9465000C9465000C9465000C9465009C
:100050000C9465000C9465000C9465000C9465008C
:100060000C9465000C9465000C9465000C9465007C
:100070000C9465000C9465000C9465000C9465006C
:100080000C9465000C9465000C94650011241FBE4F
:10009000CFEFD0E4DEBFCDBF11E0A0E0B1E0E8EDEE
:1000A000F5E000E00BBF02C007900D92A231B1074E
:1000B000D9F721E0A2E1B1E001C01D92A432B2075C
:1000C000E1F70E946E010C94EA020C940000CF93B9
:1000D000DF9300D01F92CDB7DEB789837B836A831D
:1000E00089818A3031F48A819B81BC018DE00E9434
:1000F000670080EC90E0FC018081882F90E08072A6
:100100009927892BB1F386EC90E02981FC012083AB
:1001100080E090E00F900F900F90DF91CF910895C5
:10012000CF93DF93CDB7DEB781E890E02BE0FC0101
:10013000208388E890E02DE730E0FC0131832083C4
:100140008FE690E022E0FC01208384E890E0FC014F
:100150001182108280910E0190910F01A0911001E7
:10016000B09111018093130190931401A093150194
:10017000B09316018FE590E02FE530E0F901208182
:100180002068FC0120830000DF91CF910895CF9378
:10019000DF93CDB7DEB781E890E0FC01108200006C
:1001A000DF91CF910895CF93DF93CDB7DEB781E094
:1001B000809312010000DF91CF9108951F920F925A
:1001C00000905F000F92112400905B000F922F931C
:1001D0003F934F935F936F937F938F939F93AF93CF
:1001E000BF93EF93FF93CF93DF93CDB7DEB78091AB
:1001F000130190911401A0911501B091160101977E
:10020000A109B1098093130190931401A0931501E2
:10021000B09316018091130190911401A0911501E2
:10022000B0911601892B8A2B8B2B91F40E94D3005D
:1002300080910E0190910F01A0911001B0911101D8
:100240008093130190931401A0931501B0931601AC
:100250000000DF91CF91FF91EF91BF91AF919F91FE
:100260008F917F916F915F914F913F912F910F905F
:1002700000925B000F9000925F000F901F90189506
:10028000CF93DF9300D000D0CDB7DEB769837A83F8
:100290008B839C8389819A81AB81BC8180930E0181
:1002A00090930F01A0931001B093110180910E0162
:1002B00090910F01A0911001B09111018093130151
:1002C00090931401A0931501B093160100000F90B4
:1002D0000F900F900F90DF91CF910895CF93DF9300
:1002E000CDB7DEB784E290E02FEFFC01208385E2FA
:1002F00090E0FC01108210921F0110921E011092DA
:1003000021011092200110922301109222011092DB
:100310001B0110921A0110921D0110921C0161E044
:1003200070E080E090E00E9440010E9490000E94F6
:10033000A5010E9448020E94BD02000080911201A6
:100340008823E1F310921201F2CFCF93DF93CDB760
:10035000DEB780911E0190911F018130910589F0D7
:100360008130910538F08230910569F1039709F4E5
:100370004CC06DC081E090E090931F0180931E01FE
:1003800066C080911A0190911B018C32914080F4DB
:1003900081E090E090931F0180931E0180911A01EB
:1003A00090911B01019690931B0180931A014FC0FD
:1003B00082E090E090931F0180931E0110921B0138
:1003C00010921A0144C080911A0190911B018C3245
:1003D000914080F482E090E090931F0180931E0191
:1003E00080911A0190911B01019690931B018093BB
:1003F0001A012DC083E090E090931F0180931E01AD
:1004000010921B0110921A0122C080911A01909142
:100410001B018C32914080F483E090E090931F01A7
:1004200080931E0180911A0190911B010196909377
:100430001B0180931A010AC081E090E090931F0194
:1004400080931E0110921B0110921A0100008091EE
:100450001E0190911F018130910549F08130910575
:1004600090F08230910539F0039749F00DC081E09A
:100470008093180109C082E08093180105C084E0D0
:100480008093180101C000000000DF91CF91089512
:10049000CF93DF93CDB7DEB78091200190912101FA
:1004A0008130910569F08130910518F0029751F182
:1004B0004BC081E090E0909321018093200144C0E3
:1004C00080911C0190911D01883E934080F481E051
:1004D00090E0909321018093200180911C019091E4
:1004E0001D01019690931D0180931C012DC082E097
:1004F00090E0909321018093200110921D011092B1
:100500001C0122C080911C0190911D01883E9340E6
:1005100080F482E090E0909321018093200180910B
:100520001C0190911D01019690931D0180931C0167
:100530000AC081E090E09093210180932001109205
:100540001D0110921C010000809120019091210159
:100550008130910531F08130910550F0029729F0FA
:1005600008C088E08093170104C01092170101C0F1
:1005700000000000DF91CF910895CF93DF93CDB7B6
:10058000DEB78091220190912301009719F0019725
:1005900041F008C081E090E0909323018093220114
:1005A00001C000008091220190912301009769F021
:1005B000019709F00BC085E290E03091180120917D
:1005C0001701232BFC01208301C000000000DF91F4
:0805D000CF910895F894FFCFCC
:1005D80000000002000000006700000000000100A9
:0205E800000011
:00000001FF
