:100000000C9446000C9465000C9465000C946500FB
:100010000C9465000C9465000C9465000C946500CC
:100020000C9465000C9465000C9465000C946500BC
:100030000C9465000C94DE000C9465000C94650033
:100040000C9465000C9465000C9465000C9465009C
:100050000C9465000C9465000C9465000C9465008C
:100060000C9465000C9465000C9465000C9465007C
:100070000C9465000C9465000C9465000C9465006C
:100080000C9465000C9465000C94650011241FBE4F
:10009000CFEFD0E4DEBFCDBF11E0A0E0B1E0ECEAED
:1000A000F7E000E00BBF02C007900D92A231B1074C
:1000B000D9F721E0A2E1B1E001C01D92A932B20757
:1000C000E1F70E946E010C94D4030C940000CF93CE
:1000D000DF9300D01F92CDB7DEB789837B836A831D
:1000E00089818A3031F48A819B81BC018DE00E9434
:1000F000670080EC90E0FC018081882F90E08072A6
:100100009927892BB1F386EC90E02981FC012083AB
:1001100080E090E00F900F900F90DF91CF910895C5
:10012000CF93DF93CDB7DEB781E890E02BE0FC0101
:10013000208388E890E02DE730E0FC0131832083C4
:100140008FE690E022E0FC01208384E890E0FC014F
:100150001182108280910E0190910F01A0911001E7
:10016000B09111018093130190931401A093150194
:10017000B09316018FE590E02FE530E0F901208182
:100180002068FC0120830000DF91CF910895CF9378
:10019000DF93CDB7DEB781E890E0FC01108200006C
:1001A000DF91CF910895CF93DF93CDB7DEB781E094
:1001B000809312010000DF91CF9108951F920F925A
:1001C00000905F000F92112400905B000F922F931C
:1001D0003F934F935F936F937F938F939F93AF93CF
:1001E000BF93EF93FF93CF93DF93CDB7DEB78091AB
:1001F000130190911401A0911501B091160101977E
:10020000A109B1098093130190931401A0931501E2
:10021000B09316018091130190911401A0911501E2
:10022000B0911601892B8A2B8B2B91F40E94D3005D
:1002300080910E0190910F01A0911001B0911101D8
:100240008093130190931401A0931501B0931601AC
:100250000000DF91CF91FF91EF91BF91AF919F91FE
:100260008F917F916F915F914F913F912F910F905F
:1002700000925B000F9000925F000F901F90189506
:10028000CF93DF9300D000D0CDB7DEB769837A83F8
:100290008B839C8389819A81AB81BC8180930E0181
:1002A00090930F01A0931001B093110180910E0162
:1002B00090910F01A0911001B09111018093130151
:1002C00090931401A0931501B093160100000F90B4
:1002D0000F900F900F90DF91CF910895CF93DF9300
:1002E000CDB7DEB781E290E0FC01108282E290E0BF
:1002F0002FEFFC01208384E290E02FEFFC012083AC
:1003000085E290E0FC0110821092220110922101FE
:1003100010922601109225011092280110922701B7
:10032000109224011092230110921C0110921B01C3
:1003300010921E0110921D011092200110921F01B7
:1003400061E070E080E090E00E9440010E94900037
:100350000E94B8010E945B020E9400030E94D0022A
:100360000000809112018823E1F310921201F0CF76
:10037000CF93DF93CDB7DEB7809121019091220119
:100380008130910589F08130910538F082309105F6
:1003900069F1039709F44CC06DC081E090E090933F
:1003A00022018093210166C080911B0190911C0164
:1003B0008C32914080F481E090E090932201809310
:1003C000210180911B0190911C01019690931C01C9
:1003D00080931B014FC082E090E0909322018093B4
:1003E000210110921C0110921B0144C080911B013D
:1003F00090911C018C32914080F482E090E09093C7
:1004000022018093210180911B0190911C01019692
:1004100090931C0180931B012DC083E090E090938A
:1004200022018093210110921C0110921B0122C015
:1004300080911B0190911C018C32914080F483E0EB
:1004400090E0909322018093210180911B01909173
:100450001C01019690931C0180931B010AC081E04E
:1004600090E0909322018093210110921C01109240
:100470001B010000809121019091220181309105A2
:1004800049F08130910590F08230910539F0039761
:1004900049F00DC081E08093180109C082E080938B
:1004A000180105C084E08093180101C0000000001D
:1004B000DF91CF910895CF93DF93CDB7DEB78091D1
:1004C0002501909126018130910569F081309105D7
:1004D00018F0029751F14BC081E090E09093260113
:1004E0008093250144C080911D0190911E01883E9A
:1004F000934080F481E090E0909326018093250161
:1005000080911D0190911E01019690931E01809390
:100510001D012DC082E090E090932601809325017B
:1005200010921E0110921D0122C080911D01909118
:100530001E01883E934080F482E090E09093260173
:100540008093250180911D0190911E010196909349
:100550001E0180931D010AC081E090E09093260166
:100560008093250110921E0110921D0100008091C0
:100570002501909126018130910531F0813091055E
:1005800050F0029729F008C088E08093170104C05A
:100590001092170101C000000000DF91CF91089573
:1005A000CF93DF93CDB7DEB78091270190912801DB
:1005B000009719F0019741F008C081E090E0909316
:1005C00028018093270101C00000809127019091AC
:1005D0002801009781F0019709F00EC085E290E0B4
:1005E0003091180120911701322B20911901232BF2
:1005F000FC01208301C000000000DF91CF9108952D
:10060000CF93DF93CDB7DEB7809123019091240182
:1006100081309105B1F08130910540F08230910533
:1006200009F44BC0039709F484C09BC083E090E0B9
:1006300090932401809323011092200110921F01B6
:1006400090C080911F01909120010297D0F480E228
:1006500090E0FC018081882F90E084709927892B9D
:1006600081F481E090E090932401809323018091B4
:100670001F019091200101969093200180931F010A
:1006800070C080E290E0FC018081882F90E084704F
:100690009927892B59F482E090E09093240180936C
:1006A00023011092200110921F015BC083E090E0B3
:1006B000909324018093230154C080911F01909155
:1006C00020010297D0F480E290E0FC018081882F25
:1006D00090E084709927892B81F482E090E09093D8
:1006E00024018093230180911F01909120010196A4
:1006F0009093200180931F0134C080E290E0FC01C0
:100700008081882F90E084709927892B59F481E0AB
:1007100090E0909324018093230110922001109285
:100720001F011FC083E090E0909324018093230178
:1007300018C080E290E0FC018081882F90E08470F6
:100740009927892B39F481E090E0909324018093DC
:10075000230106C083E090E090932401809323015D
:10076000000080912301909124018130910549F08E
:1007700081309105A0F08230910539F0039741F066
:100780000FC080E1809319010BC01092190108C0BD
:10079000109219011092200110921F0101C0000057
:0C07A0000000DF91CF910895F894FFCF86
:1007AC0000000002000000006700000000000100D3
:0207BC0000003B
:00000001FF
