:100000000C9446000C9465000C9465000C946500FB
:100010000C9465000C9465000C9465000C946500CC
:100020000C9465000C9465000C9465000C946500BC
:100030000C9465000C94DE000C9465000C94650033
:100040000C9465000C9465000C9465000C9465009C
:100050000C9465000C9465000C9465000C9465008C
:100060000C9465000C9465000C9465000C9465007C
:100070000C9465000C9465000C9465000C9465006C
:100080000C9465000C9465000C94650011241FBE4F
:10009000CFEFD0E4DEBFCDBF11E0A0E0B1E0E8E3F8
:1000A000F9E000E00BBF02C007900D92A431B10748
:1000B000D9F721E0A4E1B1E001C01D92AD32B20751
:1000C000E1F70E946E010C949A040C940000CF9307
:1000D000DF9300D01F92CDB7DEB789837B836A831D
:1000E00089818A3031F48A819B81BC018DE00E9434
:1000F000670080EC90E0FC018081882F90E08072A6
:100100009927892BB1F386EC90E02981FC012083AB
:1001100080E090E00F900F900F90DF91CF910895C5
:10012000CF93DF93CDB7DEB781E890E02BE0FC0101
:10013000208388E890E02DE730E0FC0131832083C4
:100140008FE690E022E0FC01208384E890E0FC014F
:100150001182108280910E0190910F01A0911001E7
:10016000B09111018093150190931601A09317018E
:10017000B09318018FE590E02FE530E0F901208180
:100180002068FC0120830000DF91CF910895CF9378
:10019000DF93CDB7DEB781E890E0FC01108200006C
:1001A000DF91CF910895CF93DF93CDB7DEB781E094
:1001B000809314010000DF91CF9108951F920F9258
:1001C00000905F000F92112400905B000F922F931C
:1001D0003F934F935F936F937F938F939F93AF93CF
:1001E000BF93EF93FF93CF93DF93CDB7DEB78091AB
:1001F000150190911601A0911701B0911801019776
:10020000A109B1098093150190931601A0931701DC
:10021000B09318018091150190911601A0911701DA
:10022000B0911801892B8A2B8B2B91F40E94D3005B
:1002300080910E0190910F01A0911001B0911101D8
:100240008093150190931601A0931701B0931801A4
:100250000000DF91CF91FF91EF91BF91AF919F91FE
:100260008F917F916F915F914F913F912F910F905F
:1002700000925B000F9000925F000F901F90189506
:10028000CF93DF9300D000D0CDB7DEB769837A83F8
:100290008B839C8389819A81AB81BC8180930E0181
:1002A00090930F01A0931001B093110180910E0162
:1002B00090910F01A0911001B0911101809315014F
:1002C00090931601A0931701B093180100000F90AE
:1002D0000F900F900F90DF91CF910895CF93DF9300
:1002E000CDB7DEB781E290E0FC01108282E290E0BF
:1002F0002FEFFC01208384E290E02FEFFC012083AC
:1003000085E290E0FC0110821092240110922301FA
:1003100010922A011092290110922C0110922B01A7
:1003200010922601109225011092280110922701A7
:1003300010921E0110921D011092200110921F01B7
:10034000109222011092210161E070E080E090E0C3
:100350000E9440010E9490000E94EA030E94BE0198
:100360000E9461020E9406030E94D6020000809152
:1003700014018823E1F310921401EECFCF93DF93A1
:10038000CDB7DEB780912301909124018130910592
:1003900089F08130910538F08230910569F1039739
:1003A00009F44CC06DC081E090E0909324018093EB
:1003B000230166C080911D0190911E018C329140F5
:1003C00080F481E090E09093240180932301809158
:1003D0001D0190911E01019690931E0180931D01B5
:1003E0004FC082E090E0909324018093230110920B
:1003F0001E0110921D0144C080911D0190911E01AB
:100400008C32914080F482E090E0909324018093BC
:10041000230180911D0190911E01019690931E0170
:1004200080931D012DC083E090E090932401809380
:10043000230110921E0110921D0122C080911D0106
:1004400090911E018C32914080F483E090E0909373
:1004500024018093230180911D0190911E0101963A
:1004600090931E0180931D010AC081E090E090935B
:1004700024018093230110921E0110921D0100009F
:1004800080912301909124018130910549F08130C0
:10049000910590F08230910539F0039749F00DC035
:1004A00081E080931A0109C082E080931A0105C09F
:1004B00084E080931A0101C000000000DF91CF9119
:1004C0000895CF93DF93CDB7DEB780912901909146
:1004D0002A018130910569F08130910518F0029769
:1004E00051F14BC081E090E090932A018093290163
:1004F00044C080911F0190912001883E934080F478
:1005000081E090E090932A018093290180911F015E
:100510009091200101969093200180931F012DC09E
:1005200082E090E090932A018093290110922001AB
:1005300010921F0122C080911F0190912001883EDE
:10054000934080F482E090E090932A018093290107
:1005500080911F019091200101969093200180933A
:100560001F010AC081E090E090932A018093290145
:100570001092200110921F0100008091290190919A
:100580002A018130910531F08130910550F00297B8
:1005900029F008C088E08093190104C01092190165
:1005A00001C000000000DF91CF910895CF93DF9349
:1005B000CDB7DEB780912B0190912C01009719F0F7
:1005C000019741F008C081E090E090932C01809366
:1005D0002B0101C0000080912B0190912C0100970C
:1005E00081F0019709F00EC085E290E030911A0188
:1005F00020911901322B20911B01232BFC01208318
:1006000001C000000000DF91CF910895CF93DF93E8
:10061000CDB7DEB7809125019091260181309105FB
:10062000B1F08130910540F08230910509F450C05D
:10063000039709F48EC0A5C083E090E09093260153
:100640008093250110922201109221019AC02091DD
:1006500021013091220180911201909113012817FC
:100660003907D0F480E290E0FC018081882F90E08F
:1006700084709927892B81F481E090E09093260182
:100680008093250180912101909122010196909300
:1006900022018093210175C080E290E0FC018081FD
:1006A000882F90E084709927892B59F482E090E09C
:1006B000909326018093250110922201109221012E
:1006C00060C083E090E0909326018093250159C09B
:1006D000209121013091220180911201909113010A
:1006E00028173907D0F480E290E0FC018081882F40
:1006F00090E084709927892B81F482E090E09093B8
:10070000260180932501809121019091220101967B
:10071000909322018093210134C080E290E0FC019B
:100720008081882F90E084709927892B59F481E08B
:1007300090E090932601809325011092220110925F
:1007400021011FC083E090E0909326018093250152
:1007500018C080E290E0FC018081882F90E08470D6
:100760009927892B39F481E090E0909326018093BA
:10077000250106C083E090E0909326018093250137
:10078000000080912501909126018130910549F06A
:1007900081309105D0F08230910539F0039741F016
:1007A00015C080E180931B0111C010921B010EC087
:1007B00010921B01109222011092210181E090E021
:1007C000909313018093120101C000000000DF919B
:1007D000CF910895CF93DF93CDB7DEB780912701F6
:1007E000909128018130910591F08130910540F080
:1007F0008230910509F453C0039709F468C07FC0A3
:1008000081E090E0909328018093270178C080E2F6
:1008100090E0FC018081882F90E081709927892BDE
:1008200081F482E090E090932801809327018091E9
:10083000120190911301019690931301809312017C
:100840005EC080E290E0FC018081882F90E08270A1
:100850009927892BE9F483E090E090932801809315
:1008600027018091120190911301019739F481E0E1
:1008700090E0909313018093120141C08091120186
:10088000909113010197909313018093120137C047
:1008900081E090E0909328018093270130C080E2AE
:1008A00090E0FC018081882F90E081709927892B4E
:1008B00039F482E090E090932801809327011FC0D3
:1008C00081E090E0909328018093270118C080E296
:1008D00090E0FC018081882F90E082709927892B1D
:1008E00039F483E090E0909328018093270106C0BB
:1008F00081E090E09093280180932701000080918F
:100900002701909128018130910549F081309105AE
:1009100040F08230910539F0039739F007C00000AC
:1009200005C0000003C0000001C000000000DF910E
:08093000CF910895F894FFCF68
:100938000000000200000000670000000000010045
:0409480000000100AA
:00000001FF
